:020000040000FA
:100000000C9435000C945D000C945D000C945D0024
:100010000C945D000C945D000C945D000C945D00EC
:100020000C945D000C945D000C945D000C945D00DC
:100030000C945D000C945D000C945D000C945D00CC
:100040000C944F020C945D000C941D020C94F7016B
:100050000C945D000C945D000C945D000C945D00AC
:100060000C945D000C945D00990211241FBECFEF2B
:10007000D8E0DEBFCDBF11E0A0E0B1E0EAE3F0E1FF
:1000800002C005900D92A438B107D9F722E0A4E888
:10009000B1E001C01D92A733B207E1F710E0C5E35C
:1000A000D0E004C02197FE010E941508C433D10797
:1000B000C9F70E94E2020C941B080C940000AF9256
:1000C000BF92CF92DF92EF92FF920F931F93CF9345
:1000D000DF936C017B018B01040F151FEB015E01A7
:1000E000AE18BF08C017D10759F06991D601ED913C
:1000F000FC910190F081E02DC6010995892B79F7DB
:10010000C501DF91CF911F910F91FF90EF90DF908C
:10011000CF90BF90AF900895FC01538D448D252F53
:1001200030E0842F90E0821B930B541710F0CF9691
:10013000089501970895FC01918D828D981761F0C3
:10014000A28DAE0FBF2FB11D5D968C91928D9F5FDA
:100150009F73928F90E008958FEF9FEF0895FC01B9
:10016000918D828D981731F0828DE80FF11D858D6C
:1001700090E008958FEF9FEF0895FC01918D228DFF
:10018000892F90E0805C9F4F821B91098F73992784
:1001900008958DE891E00E94BD0021E0892B09F4CB
:1001A00020E0822F089580E090E0892B29F00E94C2
:1001B000C90081110C9400000895FC01A48DA80FC2
:1001C000B92FB11DA35ABF4F2C91848D90E0019699
:1001D0008F739927848FA689B7892C93A089B189B9
:1001E0008C91837080648C93938D848D981306C05A
:1001F0000288F389E02D80818F7D80830895EF92BE
:10020000FF920F931F93CF93DF93EC0181E0888FD0
:100210009B8D8C8D98131AC0E889F989808185FFA0
:1002200015C09FB7F894EE89FF896083E889F98942
:1002300080818370806480839FBF81E090E0DF9144
:10024000CF911F910F91FF90EF900895F62E0B8D97
:1002500010E00F5F1F4F0F731127E02E8C8D8E1152
:100260000CC00FB607FCFACFE889F989808185FFB9
:10027000F5CFCE010E94DD00F1CFEB8DEC0FFD2F0D
:10028000F11DE35AFF4FF0829FB7F8940B8FEA8974
:10029000FB8980818062CFCFCF93DF93EC01888D83
:1002A0008823B9F0AA89BB89E889F9898C9185FDF1
:1002B00003C0808186FD0DC00FB607FCF7CF8C917F
:1002C00085FFF2CF808185FFEDCFCE010E94DD005A
:1002D000E9CFDF91CF9108958E3008F08E5087706E
:1002E000806480937C0080917A00806480937A009F
:1002F00080917A0086FDFCCF809178009091790002
:1003000008953FB7F8948091890190918A01A09156
:100310008B01B0918C0126B5A89B05C02F3F19F029
:100320000196A11DB11D3FBFBA2FA92F982F882775
:10033000BC01CD01620F711D811D911D42E0660F50
:10034000771F881F991F4A95D1F70895FC010190E6
:100350000020E9F73197AF01481B590BBC018DE82C
:1003600091E00C945F008F929F92AF92BF920F9397
:100370001F93CF93DF93CDB7DEB7A1970FB6F89455
:10038000DEBF0FBECDBF19A2423008F44AE08E0195
:100390000F5D1F4F842E912CB12CA12CA50194012F
:1003A0000E94F307E62FB901CA01EA30F4F4E05DD8
:1003B000D801EE938D01232B242B252B79F790E088
:1003C00080E0109719F0CD010E94A601A1960FB60A
:1003D000F894DEBF0FBECDBFDF91CF911F910F917B
:1003E000BF90AF909F908F900895E95CE1CF1F92EE
:1003F0000F920FB60F9211242F933F934F935F9359
:100400006F937F938F939F93AF93BF93EF93FF93DC
:100410008DE891E00E94DD00FF91EF91BF91AF91D7
:100420009F918F917F916F915F914F913F912F910C
:100430000F900FBE0F901F9018951F920F920FB63E
:100440000F9211242F938F939F93EF93FF93E0913B
:100450009D01F0919E018081E091A301F091A401A2
:1004600082FD1BC090818091A6018F5F8F732091C8
:10047000A701821741F0E091A601F0E0E357FE4F9B
:10048000958F8093A601FF91EF919F918F912F916E
:100490000F900FBE0F901F9018958081F4CF1F9280
:1004A0000F920FB60F9211242F933F938F939F9328
:1004B000AF93BF938091850190918601A0918701B0
:1004C000B09188013091840123E0230F2D3758F536
:1004D0000196A11DB11D2093840180938501909305
:1004E0008601A0938701B093880180918901909142
:1004F0008A01A0918B01B0918C010196A11DB11DC3
:100500008093890190938A01A0938B01B0938C0111
:10051000BF91AF919F918F913F912F910F900FBEFF
:100520000F901F90189526E8230F0296A11DB11D6C
:10053000D2CFEDE8F1E01382128288EE93E0A0E0E2
:10054000B0E084839583A683B78384E091E09183B0
:10055000808385EC90E09587848784EC90E0978792
:10056000868780EC90E0918B808B81EC90E0938B80
:10057000828B82EC90E0958B848B86EC90E0978B5D
:10058000868B118E128E138E148EEAE2F2E08EE0CC
:1005900080838AE197E6ACE9B0E481839283A38308
:1005A000B48389EB818783EF94E0A5E3BFE3858380
:1005B0009683A783B0878FEF91E09387828785E149
:1005C00084870895789484B5826084BD84B5816001
:1005D00084BD85B5826085BD85B5816085BD80910E
:1005E0006E00816080936E00109281008091810086
:1005F000826080938100809181008160809381007E
:10060000809180008160809380008091B10084603F
:100610008093B1008091B00081608093B0008091A0
:100620007A00846080937A0080917A00826080935F
:100630007A0080917A00816080937A0080917A00BC
:10064000806880937A001092C100E0919D01F09142
:100650009E0182E08083E0919901F0919A011082DD
:10066000E0919B01F0919C018FEC80831092A50199
:10067000E091A101F091A20186E08083E0919F01C9
:10068000F091A001808180618083E0919F01F091D1
:10069000A001808188608083E0919F01F091A0019A
:1006A000808180688083E0919F01F091A00180812A
:1006B0008F7D808382E191E00E94A60187E491E032
:1006C0000E94A6010E9481012B013C01C12CD12C6A
:1006D0007601812C912C54010E94810164197509C5
:1006E0008609970960347C498105910570F48091F1
:1006F0002A020E946C01880E991EA11CB11C8FEF6A
:10070000C81AD80AE80AF80AE7CFC501B401A70158
:1007100096010E94F30730933502209334028AE455
:1007200091E00E94A601609134027091350290E040
:1007300080E04AE00E94B30185E591E00E94A601B5
:100740006091360270E090E080E04AE00E94B301E0
:1007500087E491E00E94A60190E0292E90E0392ED6
:100760000E9481012B013C0180912A020E946C01B0
:100770007C01EC0110E000E0D12CC12C0E94810131
:10078000641975098609970960327E4481059105CF
:10079000E0F58FEFC81AD80A80912A020E946C01F6
:1007A0008E159F050CF47C01C817D9070CF4EC01D9
:1007B0002091340230913502812C912C540128175C
:1007C000390749F0821B930BBC0190E080E00E9446
:1007D0006F064B015C016091360270E090E080E0B2
:1007E0000E94710620912B0230912C0240912D0223
:1007F00050912E020E94C705A50194010E94210775
:1008000087FDBCCF0F5F1F4FB9CFCE19DF09B801ED
:1008100090E080E00E946F064B015C01B60190E021
:1008200080E00E946F066B017C012DEC3CEC4CECEF
:100830005CE30E9426079B01AC01C501B4010E9444
:10084000210718160CF096C0A7019601C501B40146
:100850000E94C7059B01AC0160E070E080E89FE367
:100860000E9455050E94990720E030E040E05FE3D8
:100870000E94260723EF34E045EB5FE30E94260742
:100880006B017C01C0922F02D0923002E0923102C3
:10089000F0923202BE01DD0F880B990B0E947106A7
:1008A00020E030E04AEF53E40E94260720912B021B
:1008B00030912C0240912D0250912E020E94260769
:1008C000A70196010E9426076B017C01609133020B
:1008D00070E090E080E00E9471069B01AC01C701CE
:1008E000B6010E94C7050E9439066B0182E691E0BD
:1008F0000E94A6010D2C000CEE08FF084AE0C7017B
:10090000B601F7FE0DC06DE28DE891E00E94FF0098
:1009100066277727CB016C197D098E099F094AE06C
:100920000E94B30187E691E00E94A601C0902F02C9
:10093000D0903002E0903102F0903202A70196018F
:10094000C701B6010E94D9078823E9F087E791E043
:100950000E94A60187E491E00E94A60121143104BF
:1009600009F4FECE0E94C900882309F4F9CE0E9442
:100970000000F6CE83EFC82E84E0D82E85E3E82E63
:100980008FE3F82E7FCF46015701E894B7F82FEF99
:100990003FEF4FE75FE7C501B4010E94D90781111E
:1009A0000DC02FEF3FEF4FE75FE7C501B4010E9495
:1009B000C20518161CF48BE791E0CACF2FEF3FEF6A
:1009C0004FE75FE4C701B6010E94210718161CF427
:1009D0008FE791E0BDCF2FEF3FEF4FE75FECC7010F
:1009E000B6010E94C20587FDF3CF20E030E0A901E7
:1009F000C701B6010E94C20587FF09C06DE28DE8FC
:100A000091E00E94FF00F7FAF094F7F8F0942AE0E2
:100A100037ED43EA5BE3C701B6010E9456054B017F
:100A20005C010E9440066B017C010E946F069B01E5
:100A3000AC01C501B4010E9455054B015C014AE0BF
:100A4000C701B6010E94B3016EE28DE891E00E94F9
:100A5000FF0020E030E040E251E4C501B4010E9413
:100A600026074B015C010E9440066B01F12CE12C32
:100A70004AE0C701B6010E94B301C701B6010E9456
:100A80006F069B01AC01C501B4010E94550520E031
:100A900030E040E251E40E9426070E94400690E0C8
:100AA00080E04AE00E94B30155CF5058BB27AA27E7
:100AB0000E946D050C94E7060E94D90638F00E944A
:100AC000E00620F039F49F3F19F426F40C94D60682
:100AD0000EF4E095E7FB0C94D006E92F0E94F8068F
:100AE00058F3BA17620773078407950720F079F463
:100AF000A6F50C941A070EF4E0950B2EBA2FA02D34
:100B00000B01B90190010C01CA01A0011124FF27BA
:100B1000591B99F0593F50F4503E68F11A16F040B5
:100B2000A22F232F342F4427585FF3CF46953795B4
:100B30002795A795F0405395C9F77EF41F16BA0B79
:100B4000620B730B840BBAF09150A1F0FF0FBB1F27
:100B5000661F771F881FC2F70EC0BA0F621F731F70
:100B6000841F48F4879577956795B795F7959E3FCD
:100B700008F0B0CF9395880F08F09927EE0F97955E
:100B8000879508950E94AC0608F481E008950E94BC
:100B9000DB050C94E7060E94E00658F00E94D90697
:100BA00040F029F45F3F29F00C94D00651110C94C9
:100BB0001B070C94D6060E94F80668F39923B1F33C
:100BC000552391F3951B550BBB27AA276217730773
:100BD000840738F09F5F5F4F220F331F441FAA1F07
:100BE000A9F335D00E2E3AF0E0E832D091505040C3
:100BF000E695001CCAF72BD0FE2F29D0660F771F71
:100C0000881FBB1F261737074807AB07B0E809F056
:100C1000BB0B802DBF01FF2793585F4F3AF09E3FDB
:100C2000510578F00C94D0060C941B075F3FE4F359
:100C3000983ED4F3869577956795B795F7959F5F1E
:100C4000C9F7880F911D9695879597F90895E1E06A
:100C5000660F771F881FBB1F621773078407BA07C9
:100C600020F0621B730B840BBA0BEE1F88F7E09524
:100C700008950E9440066894B1110C941B070895D2
:100C80000E94000788F09F5798F0B92F9927B75115
:100C9000B0F0E1F0660F771F881F991F1AF0BA9520
:100CA000C9F714C0B13091F00E941A07B1E008955D
:100CB0000C941A07672F782F8827B85F39F0B93F4F
:100CC000CCF3869577956795B395D9F73EF49095D3
:100CD0008095709561957F4F8F4F9F4F0895E89451
:100CE00009C097FB3EF490958095709561957F4F74
:100CF0008F4F9F4F9923A9F0F92F96E9BB27939522
:100D0000F695879577956795B795F111F8CFFAF431
:100D1000BB0F11F460FF1BC06F5F7F4F8F4F9F4F62
:100D200016C0882311F096E911C0772321F09EE8C0
:100D3000872F762F05C0662371F096E8862F70E026
:100D400060E02AF09A95660F771F881FDAF7880F00
:100D50009695879597F90895990F0008550FAA0B56
:100D6000E0E8FEEF16161706E807F907C0F01216BE
:100D70001306E407F50798F0621B730B840B950BC1
:100D800039F40A2661F0232B242B252B21F4089516
:100D90000A2609F4A140A6958FEF811D811D0895B3
:100DA00097F99F6780E870E060E008959FEF80EC1E
:100DB000089500240A9416161706180609060895C1
:100DC00000240A9412161306140605060895092E27
:100DD0000394000C11F4882352F0BB0F40F4BF2B96
:100DE00011F460FF04C06F5F7F4F8F4F9F4F0895D6
:100DF00057FD9058440F551F59F05F3F71F04795CC
:100E0000880F97FB991F61F09F3F79F087950895B0
:100E1000121613061406551FF2CF4695F1DF08C0CF
:100E2000161617061806991FF1CF869571056105EC
:100E300008940895E894BB2766277727CB0197F994
:100E400008950E94AC0608F48FEF08950E943907B8
:100E50000C94E7060E94D90638F00E94E00620F0C4
:100E6000952311F00C94D0060C94D60611240C9402
:100E70001B070E94F80670F3959FC1F3950F50E091
:100E8000551F629FF001729FBB27F00DB11D639F3C
:100E9000AA27F00DB11DAA1F649F6627B00DA11DE2
:100EA000661F829F2227B00DA11D621F739FB00D88
:100EB000A11D621F839FA00D611D221F749F3327F8
:100EC000A00D611D231F849F600D211D822F762F91
:100ED0006A2F11249F5750409AF0F1F088234AF06E
:100EE000EE0FFF1FBB1F661F771F881F91505040DA
:100EF000A9F79E3F510580F00C94D0060C941B0777
:100F00005F3FE4F3983ED4F3869577956795B79560
:100F1000F795E7959F5FC1F7FE2B880F911D96957A
:100F2000879597F9089519F416F40C94D6060C9445
:100F3000DE070E940007B8F39923C9F3B6F39F5761
:100F4000550B87FF0E94EC070024A0E640EA9001C1
:100F500080585695979528F4805C660F771F881FF8
:100F600020F026173707480730F4621B730B840BF9
:100F7000202931294A2BA69517940794202531253D
:100F80004A2758F7660F771F881F20F02617370764
:100F9000480730F4620B730B840B200D311D411D8B
:100FA000A09581F7B901842F9158880F9695879560
:100FB00008950E94AC06880B990B08959F3F31F06D
:100FC000915020F4879577956795B795880F911D77
:100FD0009695879597F9089591505040660F771F21
:100FE000881FD2F70895A1E21A2EAA1BBB1BFD0190
:100FF0000DC0AA1FBB1FEE1FFF1FA217B307E407F8
:10100000F50720F0A21BB30BE40BF50B661F771F4F
:10101000881F991F1A9469F760957095809590952F
:101020009B01AC01BD01CF010895EE0FFF1F05909C
:10103000F491E02D0994F894FFCF00000000FF0028
:101040005F008C004C01BD009B00AF00433A5C5533
:10105000736572735C68616674615C4465736B741C
:101060006F705C6E6574776F726B5C4669726562F7
:101070006173655C46697265626173652E696E6F46
:10108000000D0A004D6964506F696E743A20002E9D
:10109000204E6F697365206D563A20006D413A20ED
:1010A000002E20466F726D20666163746F723A2065
:0E10B000006E616E00696E66006F766600006D
:107E0000112484B714BE81FFF0D085E080938100F7
:107E100082E08093C00088E18093C10086E0809377
:107E2000C20080E18093C4008EE0C9D0259A86E02C
:107E300020E33CEF91E0309385002093840096BBD3
:107E4000B09BFECF1D9AA8958150A9F7CC24DD24C4
:107E500088248394B5E0AB2EA1E19A2EF3E0BF2EE7
:107E6000A2D0813461F49FD0082FAFD0023811F036
:107E7000013811F484E001C083E08DD089C08234E0
:107E800011F484E103C0853419F485E0A6D080C0E4
:107E9000853579F488D0E82EFF2485D0082F10E0AE
:107EA000102F00270E291F29000F111F8ED06801E7
:107EB0006FC0863521F484E090D080E0DECF843638
:107EC00009F040C070D06FD0082F6DD080E0C81688
:107ED00080E7D80618F4F601B7BEE895C0E0D1E017
:107EE00062D089930C17E1F7F0E0CF16F0E7DF06D8
:107EF00018F0F601B7BEE89568D007B600FCFDCFD4
:107F0000A601A0E0B1E02C9130E011968C91119780
:107F100090E0982F8827822B932B1296FA010C0160
:107F200087BEE89511244E5F5F4FF1E0A038BF0790
:107F300051F7F601A7BEE89507B600FCFDCF97BE46
:107F4000E89526C08437B1F42ED02DD0F82E2BD052
:107F50003CD0F601EF2C8F010F5F1F4F84911BD097
:107F6000EA94F801C1F70894C11CD11CFA94CF0C13
:107F7000D11C0EC0853739F428D08EE10CD085E9AC
:107F80000AD08FE07ACF813511F488E018D01DD067
:107F900080E101D065CF982F8091C00085FFFCCF94
:107FA0009093C60008958091C00087FFFCCF809118
:107FB000C00084FD01C0A8958091C6000895E0E648
:107FC000F0E098E1908380830895EDDF803219F02E
:107FD00088E0F5DFFFCF84E1DECF1F93182FE3DFCA
:107FE0001150E9F7F2DF1F91089580E0E8DFEE27F6
:047FF000FF270994CA
:027FFE00040479
:00000001FF
