:100000000C947A000C9449070C9422070C94A200DB
:100010000C94A2000C94A2000C94A2000C94A200D8
:100020000C94A2000C94A2000C94A2000C94A200C8
:100030000C94A2000C94A2000C94A2000C94A200B8
:100040000C94D8060C94A2000C94A6060C9480067E
:100050000C94A2000C94A2000C94A2000C94A20098
:100060000C94A2000C94A2000000000023002600C3
:10007000290000000008000201000003040700003E
:100080000000000000000A0B0C0D0E0F7261646985
:100090006F206861726477617265206973206E6F8A
:1000A0007420726573706F6E64696E672121000041
:1000B000000000250028002B00000000002400277D
:1000C000002A0004040404040404040202020202DC
:1000D000020303030303030102040810204080010C
:1000E0000204081020010204081020000102030489
:1000F0000500700711241FBECFEFD8E0DEBFCDBFD3
:1001000022E0ACEEB1E001C01D92A43CB207E1F7E1
:1001100011E0A0E0B1E0E8EBF6E102C005900D923D
:10012000AC3EB107D9F710E0CAE7D0E004C0219790
:10013000FE010E94540BC937D107C9F70E94BF07BF
:100140000C945A0B0C94000090E0FC01E952FF4F14
:1001500024918D539F4FFC018491882399F090E066
:10016000880F991FFC01E754FF4FA591B491FC0142
:10017000E155FF4F859194918FB7F894EC91E22B64
:10018000EC938FBF0895AF92BF92CF92DF92EF9220
:10019000FF920F931F93CF93DF936C017B018B0131
:1001A000040F151FEB015E01AE18BF08C017D10781
:1001B00059F06991D601ED91FC910190F081E02D0B
:1001C000C6010995892B79F7C501DF91CF911F9160
:1001D0000F91FF90EF90DF90CF90BF90AF90089578
:1001E000FC01538D448D252F30E0842F90E0821B3D
:1001F000930B541710F0CF96089501970895FC01C2
:10020000918D828D981761F0A28DAE0FBF2FB11D19
:100210005D968C91928D9F5F9F73928F90E0089571
:100220008FEF9FEF0895FC01918D828D981731F02B
:10023000828DE80FF11D858D90E008958FEF9FEF7F
:100240000895FC01918D228D892F90E0805C9F4F55
:10025000821B91098F73992708958AE092E00E948A
:10026000210121E0892B09F420E0822F089580E00C
:1002700090E0892B29F00E942D0181110C9400003F
:100280000895FC01A48DA80FB92FB11DA35ABF4F2B
:100290002C91848D90E001968F739927848FA68985
:1002A000B7892C93A089B1898C91837080648C93D9
:1002B000938D848D981306C00288F389E02D808188
:1002C0008F7D80830895EF92FF920F931F93CF93BA
:1002D000DF93EC0181E0888F9B8D8C8D98131AC081
:1002E000E889F989808185FF15C09FB7F894EE8968
:1002F000FF896083E889F9898081837080648083C5
:100300009FBF81E090E0DF91CF911F910F91FF900F
:10031000EF900895F62E0B8D10E00F5F1F4F0F73B7
:100320001127E02E8C8D8E110CC00FB607FCFACF72
:10033000E889F989808185FFF5CFCE010E944101CE
:10034000F1CFEB8DEC0FFD2FF11DE35AFF4FF08243
:100350009FB7F8940B8FEA89FB8980818062CFCFA9
:10036000CF93DF93EC01888D8823B9F0AA89BB89EC
:10037000E889F9898C9185FD03C0808186FD0DC0D7
:100380000FB607FCF7CF8C9185FFF2CF808185FFF8
:10039000EDCFCE010E944101E9CFDF91CF910895C9
:1003A000833081F028F4813099F08230A9F00895EB
:1003B0008730A9F08830C9F08430B1F48091800092
:1003C0008F7D03C0809180008F7780938000089597
:1003D00084B58F7784BD089584B58F7DFBCF8091E0
:1003E000B0008F778093B00008958091B0008F7D2A
:1003F000F9CFCF93DF93282F30E0F901EE58FF4F6C
:100400008491F901E952FF4FD491F901ED53FF4F67
:10041000C491CC23A1F081110E94D001EC2FF0E017
:10042000EE0FFF1FE859FF4FA591B491EC91ED231A
:1004300081E090E009F480E0DF91CF91089580E0C1
:1004400090E0FACF1F93CF93DF93282F30E0F9018C
:10045000EE58FF4F8491F901E952FF4FD491F90111
:10046000ED53FF4FC491CC23A9F0162F81110E94A8
:10047000D001EC2FF0E0EE0FFF1FE155FF4FA591EB
:10048000B4918FB7F894EC91111108C0D095DE2388
:10049000DC938FBFDF91CF911F910895DE2BF8CFB2
:1004A000682F8091A9020E9422028091C00290913F
:1004B000C1028230910538F0880F991F880F991F6B
:1004C00005970197F1F7089581E00C94500220916F
:1004D000A7023091A8024091A9025091AA022417C4
:1004E000350721F0682F822F0C94220208953FB720
:1004F000F8948091050290910602A0910702B091B4
:10050000080226B5A89B05C02F3F19F00196A11D32
:10051000B11D3FBFBA2FA92F982F8827BC01CD014D
:10052000620F711D811D911D42E0660F771F881FAC
:10053000991F4A95D1F708958F929F92AF92BF92DB
:10054000CF92DF92EF92FF924B015C010E94770203
:100550006B017C010E9477026C197D098E099F094D
:10056000683E734081059105A8F321E0821A910845
:10057000A108B10888EEC80E83E0D81EE11CF11C6A
:1005800081149104A104B10429F7FF90EF90DF904A
:10059000CF90BF90AF909F908F90089508958EBD9B
:1005A00000000DB407FEFDCF8EB508950F931F9385
:1005B0000091AB021091AC022091AD023091AE02DD
:1005C00040E052E16AE770E080E004171507260773
:1005D000370740F476956795579547958F5F863036
:1005E000A1F787E0982F906A9695809581709CBDC1
:1005F0008DBD80E01F910F910C945002CF93C82FB6
:100600000E94D6028C2F80620E94CF028093AF029C
:10061000CF910C946402CF93C82F0E94D6028C2FE6
:100620000E94CF028093AF028FEF0E94CF02C82FAB
:100630000E9464028C2FCF910895FF920F931F9315
:10064000CF93DF93C82FF62E072F142F0E94D602C8
:100650008C2F80620E94CF028093AF02CF2DD02FCB
:10066000115020F089910E94CF02FACFDF91CF91F3
:100670001F910F91FF900C9464020E94D60280E5B6
:100680000E94CF028093AF0283E70E94CF020C94B6
:100690006402CF93DF93D82FC62F0E94D6028D2FEE
:1006A00080620E94CF028093AF028C2F0E94CF0203
:1006B000DF91CF910C9464026091B90261FD0AC090
:1006C00062606093B90280E00E9449038BE19EE47E
:1006D0000197F1F708950E945C036091B90261608F
:1006E0006093B90280E00E94490360E787E00E94BE
:1006F000490381E00E9467028091B302882339F0A8
:100700004091B80263EB72E08AE00C941D0382E032
:100710000E940B03EBEEF0E0E49121E030E001C039
:10072000220FEA95EAF72095622F682382E00C9465
:100730004903FC0101900020E9F73197AF01481B04
:10074000590BBC018AE092E00C94C3008F929F92F7
:10075000AF92BF920F931F93CF93DF93CDB7DEB7C6
:10076000A1970FB6F894DEBF0FBECDBF19A24230DD
:1007700008F44AE08E010F5D1F4F842E912CB12C9E
:10078000A12CA50194010E94320BE62FB901CA01E8
:10079000EA30F4F4E05DD801EE938D01232B242B95
:1007A000252B79F790E080E0109719F0CD010E9499
:1007B0009903A1960FB6F894DEBF0FBECDBFDF91AF
:1007C000CF911F910F91BF90AF909F908F90089500
:1007D000E95CE1CF4F925F926F927F928F929F92EE
:1007E000AF92BF92CF92DF92EF92FF926B017C01AA
:1007F000AC019B010E942D0B8823C1F082E291E0A5
:100800000E9499037C018EE291E00E9499038E0D73
:100810009F1DFF90EF90DF90CF90BF90AF909F9083
:100820008F907F906F905F904F9008954601570191
:10083000E894B7F82FEF3FEF4FE75FE7C501B4014A
:100840000E942D0B81110DC02FEF3FEF4FE75FE7A7
:10085000C501B4010E94D50918161CF486E291E086
:10086000CFCF2FEF3FEF4FE75FE4C701B6010E9404
:10087000BB0A18161CF48AE291E0C2CF2FEF3FEFBB
:100880004FE75FECC701B6010E94D50987FDF3CFA2
:1008900020E030E0A901C701B6010E94D509B12CC2
:1008A000A12C87FF0AC06DE28AE092E00E946301FA
:1008B0005C01F7FAF094F7F8F0942AE037ED43EA98
:1008C0005BE3C701B6010E9469092B013C010E944C
:1008D000DA096B017C010E94090A9B01AC01C3018A
:1008E000B2010E9468092B013C014AE0C701B60130
:1008F0000E94A6037C01EA0CFB1C6EE28AE092E0F7
:100900000E946301E80EF91E20E030E040E251E46D
:10091000C301B2010E94C00A2B013C010E94DA0906
:100920004B01B12CA12C4AE0C501B4010E94A603E1
:10093000E80EF91EC501B4010E94090A9B01AC0131
:10094000C301B2010E94680920E030E040E251E4B6
:100950000E94C00A0E94DA0990E080E04AE00E940A
:10096000A603E80EF91E4FCFCF93DF930E949903A1
:10097000EC018EE291E00E9499038C0F9D1FDF91A4
:10098000CF910895CF93DF93BC01990F880B990BFA
:100990004AE00E94A603EC018EE291E00E949903D6
:1009A0008C0F9D1FDF91CF910895CF92DF92EF9230
:1009B000FF920F931F93CF93DF9381E391E00E9407
:1009C000B4048FEF0E94FE028091AF0290E09595F3
:1009D000879587708630A8F78091B102C0E0D3E098
:1009E000811107C0C091B002DC2FC43008F0D3E001
:1009F000CD1B0E94D60281E60E94CF028093AF02F7
:100A00000DEF11E0D15038F08FEF0E94CF02F801C6
:100A100081938F01F7CFC15020F08FEF0E94CF025A
:100A2000FACF0E94640260E487E00E9449038FE4E9
:100A300091E00E94B40488E691E00E9499038091BD
:100A4000FD0190E00E94C2048FE691E00E949903AC
:100A50008091FE0190E00E94C20488E791E00E942C
:100A600099038091FF0190E00E94C2048091FD01F2
:100A7000882309F43CC18091FE01882319F18FE796
:100A800091E00E94B4046091FF0186E00E9422027E
:100A900086E00E94F90121E0892B09F420E02093EF
:100AA000FC0183E991E00E9499038091FC0190E0B0
:100AB000DF91CF911F910F91FF90EF90DF90CF903A
:100AC0000C94C20486EA91E00E94B40480E00E9483
:100AD00067028091BC029091BD028230910538F08E
:100AE000880F991F880F991F05970197F1F780913B
:100AF000B202882319F081EE0E94FE026091B902D1
:100B00006E7F6093B90280E00E94490382E00E94F8
:100B10000B03EBEEF0E0E49161E070E001C0660FE2
:100B2000EA95EAF7682B82E00E94490380E090E0B2
:100B3000A0E8BFE38093F0019093F101A093F2014C
:100B4000B093F30186E00E94F901BC01990F880B74
:100B5000990B0E940B0A6093F4017093F501809346
:100B6000F6019093F7018091EC019091ED01A09135
:100B7000EE01B091EF018093F8019093F901A093F9
:100B8000FA01B093FB018091B102C0E0DCE0811179
:100B900007C0C091B002DC2FCD3008F0DCE0CD1BE7
:100BA0000E94D60280EA0E94CF028093AF0200EF3B
:100BB00011E0D15030F0F80181918F010E94CF02F5
:100BC000F8CFC15020F080E00E94CF02FACF0E94FF
:100BD000640281E00E9467028FB7F894C09001021E
:100BE000D0900202E0900302F09004028FBF8FEFDA
:100BF0000E94FE028091AF028073E1F42FB7F89457
:100C00008091010290910202A0910302B09104022E
:100C10002FBF8C199D09AE09BF0980369105A1052A
:100C2000B10528F381E08093BB0289ED91E00E9439
:100C3000B4044FC080E00E94670260E787E00E9432
:100C400049038091AF0284FD4EC083EB91E00E9486
:100C5000B4048DEC91E00E9499036091F0017091D1
:100C6000F1018091F2019091F3010E94EA0388E77B
:100C700091E00E9499036091F4017091F5018091D7
:100C8000F6019091F7010E94EA0383ED91E00E9442
:100C900099036091F8017091F9018091FA019091A6
:100CA000FB010E94EA032DEC3CEC4CEC5DE360910F
:100CB000EC017091ED018091EE019091EF010E94A5
:100CC00069096093EC017093ED018093EE019093BC
:100CD000EF01DF91CF911F910F91FF90EF90DF9087
:100CE000CF900C946B0381EE0E94FE029ECFDF91A9
:100CF000CF911F910F91FF90EF90DF90CF900895CB
:100D00001F920F920FB60F9211242F933F934F9380
:100D10005F936F937F938F939F93AF93BF93EF9363
:100D2000FF938AE092E00E944101FF91EF91BF9111
:100D3000AF919F918F917F916F915F914F913F9173
:100D40002F910F900FBE0F901F9018951F920F922A
:100D50000FB60F9211242F938F939F93EF93FF93CE
:100D6000E0911A02F0911B028081E0912002F09143
:100D7000210282FD1BC09081809123028F5F8F73BF
:100D800020912402821741F0E0912302F0E0E65F17
:100D9000FD4F958F80932302FF91EF919F918F914B
:100DA0002F910F900FBE0F901F9018958081F4CF58
:100DB0001F920F920FB60F9211242F933F938F9390
:100DC0009F93AF93BF938091010290910202A091F3
:100DD0000302B09104023091000223E0230F2D376B
:100DE00058F50196A11DB11D2093000280930102C8
:100DF00090930202A0930302B09304028091050233
:100E000090910602A0910702B09108020196A11DDF
:100E1000B11D8093050290930602A0930702B09340
:100E20000802BF91AF919F918F913F912F910F90A9
:100E30000FBE0F901F90189526E8230F0296A11D54
:100E4000B11DD2CF1F920F920FB60F9211242F9384
:100E50003F934F935F936F937F938F939F93AF9342
:100E6000BF93EF93FF93E0910201F0910301099585
:100E7000FF91EF91BF91AF919F918F917F916F9172
:100E80005F914F913F912F910F900FBE0F901F9048
:100E900018951F920F920FB60F9211242F933F9324
:100EA0004F935F936F937F938F939F93AF93BF9372
:100EB000EF93FF93E0910001F09101010995FF91FB
:100EC000EF91BF91AF919F918F917F916F915F91C2
:100ED0004F913F912F910F900FBE0F901F9018953B
:100EE000EAE0F2E01382128288EE93E0A0E0B0E044
:100EF00084839583A683B78384E191E09183808383
:100F000085EC90E09587848784EC90E097878687CE
:100F100080EC90E0918B808B81EC90E0938B828BC6
:100F200082EC90E0958B848B86EC90E0978B868B9F
:100F3000118E128E138E148EE7EAF2E087E090E0B5
:100F40009183808388E090E09383828380E896E9B0
:100F5000A8E9B0E084839583A683B78380E2818784
:100F600081E0828785E0818B138A85E090E0A0E0B4
:100F7000B0E0818F928FA38FB48F148608957894F8
:100F800084B5826084BD84B5816084BD85B582608E
:100F900085BD85B5816085BD80916E00816080933F
:100FA0006E001092810080918100826080938100A8
:100FB00080918100816080938100809180008160B8
:100FC000809380008091B10084608093B100809113
:100FD000B00081608093B00080917A00846080933B
:100FE0007A0080917A00826080937A0080917A0002
:100FF000816080937A0080917A00806880937A0083
:101000001092C100E0911A02F0911B0282E08083ED
:10101000E0911602F09117021082E0911802F0910F
:1010200019028FEC808310922202E0911E02F0914F
:101030001F0286E08083E0911C02F0911D028081F6
:1010400080618083E0911C02F0911D0280818860A4
:101050008083E0911C02F0911D0280818068808372
:10106000E0911C02F0911D0280818F7D80836AE0F7
:1010700070E080E090E00E949C0286E00E94A40064
:101080008091A7029091A8022091A9023091AA0212
:101090008217930731F00E94A4008091A9020E9458
:1010A000A400CFB7F89480910902811124C0EDEC1F
:1010B000F0E08491E1EEF0E09491E82FF0E0EE0FA3
:1010C000FF1FE754FF4FA591B491EC91E92321F460
:1010D00061E08AE00E9422028AE00E94A4008CB5AE
:1010E00080618CBD8CB580648CBD8DE00E94A400B5
:1010F0008BE00E94A400809109028F5F8093090217
:10110000CFBF80E00E94670281E00E94500265E04C
:1011100070E080E090E00E949C026FE584E00E9415
:10112000490386E00E940B0345E550E060E070E073
:101130004093BC025093BD026093BE027093BF0205
:10114000682F677D86E00E94490386E00E940B03BA
:101150008DE10E940B03C82F0E943D038DE10E9488
:101160000B0391E0C81390E09093BA02882341F0FA
:10117000C81302C00E943D0360E08DE10E94490354
:101180001092B20260E08CE10E9449031092B10219
:101190006FE381E00E94490363E082E00E9449031B
:1011A00080E28093B002C1E16091B0028C2F0E9476
:1011B0004903CF5FC731C1F763E083E00E94490371
:1011C00085E08093B8026CE40E94490360E787E001
:1011D0000E94490382EE0E94FE0281EE0E94FE02FE
:1011E0006CE080E00E94490380E00E940B03809342
:1011F000B9020E945C038091B9028E3091F0CCE874
:10120000D0E0FE016491662339F08AE092E00E940A
:1012100063012196892BA9F78EE291E00E94990340
:10122000FFCF8EE38093B9026EE380E00E94490312
:101230004091B8026AE071E08AE00E941D0340918B
:10124000B8026AE071E080E10E941D03E7E8F0E087
:1012500084914091B8026AE071E00E941D0382E02F
:101260000E940B03ECEEF0E0E49161E070E001C05D
:10127000660FEA95EAF7682B82E00E94490386E050
:101280000E940B03887F682F616086E00E944903FB
:101290000E946B0385ED94E090930301809302011B
:1012A00080916900837F886080936900E99A64EF88
:1012B00071E080E090E00E949C02C0E0D0E02097C6
:1012C000F1F30E942D018823D1F30E940000F7CF93
:1012D0005058BB27AA270E9480090C94810A0E94BB
:1012E000730A38F00E947A0A20F039F49F3F19F40B
:1012F00026F40C94700A0EF4E095E7FB0C946A0A4D
:10130000E92F0E94920A58F3BA17620773078407FD
:10131000950720F079F4A6F50C94B40A0EF4E09544
:101320000B2EBA2FA02D0B01B90190010C01CA019F
:10133000A0011124FF27591B99F0593F50F4503E4A
:1013400068F11A16F040A22F232F342F4427585F3C
:10135000F3CF469537952795A795F0405395C9F754
:101360007EF41F16BA0B620B730B840BBAF091500C
:10137000A1F0FF0FBB1F661F771F881FC2F70EC0AB
:10138000BA0F621F731F841F48F48795779567957E
:10139000B795F7959E3F08F0B0CF9395880F08F06A
:1013A0009927EE0F9795879508950E94460A08F4AD
:1013B00081E008950E949A0A88F09F5798F0B92F0B
:1013C0009927B751B0F0E1F0660F771F881F991F7A
:1013D0001AF0BA95C9F714C0B13091F00E94B40A5E
:1013E000B1E008950C94B40A672F782F8827B85F6E
:1013F00039F0B93FCCF3869577956795B395D9F7D2
:101400003EF490958095709561957F4F8F4F9F4FDB
:101410000895E89409C097FB3EF4909580957095E7
:1014200061957F4F8F4F9F4F9923A9F0F92F96E930
:10143000BB279395F695879577956795B795F111A5
:10144000F8CFFAF4BB0F11F460FF1BC06F5F7F4F42
:101450008F4F9F4F16C0882311F096E911C0772354
:1014600021F09EE8872F762F05C0662371F096E85D
:10147000862F70E060E02AF09A95660F771F881F2C
:10148000DAF7880F9695879597F90895990F0008D0
:10149000550FAA0BE0E8FEEF16161706E807F90746
:1014A000C0F012161306E407F50798F0621B730BE1
:1014B000840B950B39F40A2661F0232B242B252B62
:1014C00021F408950A2609F4A140A6958FEF811D05
:1014D000811D089597F99F6780E870E060E00895A6
:1014E0009FEF80EC089500240A941616170618063C
:1014F0000906089500240A94121613061406050618
:101500000895092E0394000C11F4882352F0BB0FA8
:1015100040F4BF2B11F460FF04C06F5F7F4F8F4F0B
:101520009F4F089557FD9058440F551F59F05F3F46
:1015300071F04795880F97FB991F61F09F3F79F0F5
:1015400087950895121613061406551FF2CF469577
:10155000F1DF08C0161617061806991FF1CF8695F9
:101560007105610508940895E894BB2766277727DD
:10157000CB0197F908950E94460A08F48FEF089569
:101580000E94D30A0C94810A0E94730A38F00E94C8
:101590007A0A20F0952311F00C946A0A0C94700AD0
:1015A00011240C94B50A0E94920A70F3959FC1F31E
:1015B000950F50E0551F629FF001729FBB27F00D01
:1015C000B11D639FAA27F00DB11DAA1F649F662756
:1015D000B00DA11D661F829F2227B00DA11D621FA5
:1015E000739FB00DA11D621F839FA00D611D221F5F
:1015F000749F3327A00D611D231F849F600D211D43
:10160000822F762F6A2F11249F5750409AF0F1F0C5
:1016100088234AF0EE0FFF1FBB1F661F771F881F2E
:1016200091505040A9F79E3F510580F00C946A0AF2
:101630000C94B50A5F3FE4F3983ED4F38695779512
:101640006795B795F795E7959F5FC1F7FE2B880FD4
:10165000911D9695879597F908950E94460A880BE3
:10166000990B0895A1E21A2EAA1BBB1BFD010DC008
:10167000AA1FBB1FEE1FFF1FA217B307E407F50742
:1016800020F0A21BB30BE40BF50B661F771F881F1E
:10169000991F1A9469F760957095809590959B01B4
:1016A000AC01BD01CF010895EE0FFF1F0590F4912D
:0816B000E02D0994F894FFCF2E
:1016B800CE02CE023030303031003030303032009F
:1016C800000000006301C300F000B0012101FF0029
:1016D80013016E616E00696E66006F7666000D0A12
:1016E80000496E74657272757074206669726564FB
:1016F8002120536C617665204E6F6465204200207E
:101708002D3E20526563657074696F6E2053756352
:101718006365737366756C004E6F64653A2000509C
:101728007572706F73653A0053746174653A00534B
:101738007769746368696E67204170706C69616E5F
:101748006365004170706C69616E636520737461D4
:101758007475733A200053656E64696E672044613E
:101768007461005472616E736D697373696F6E2072
:101778005375636365737366756C3A20004E6F64C6
:10178800653A00446174613A004661696C65642198
:0C1798002054727920416761696E2E00B8
:00000001FF
